:100000000C9491070C94AE070C94AE070C9414302A
:100010000C94AE070C94AE070C94AE070C94AE078C
:100020000C94AE070C94AE070C94DA2C0C94B22D01
:100030000C94051B0C94AE070C94AE070C94AE0701
:100040000C94AE070C94AE070C94AE070C94AE075C
:100050000C94AE070C94B62C0C94AE070C94AE071F
:100060000C94AE070C94AE070C94AE070C94AE073C
:100070000C94AE070C94AE070C94AE070C94AE072C
:100080000C94AE070C94AE070C94AE070C94AE071C
:100090000C94AE070C94AE070C94AE070C94AE070C
:1000A0000C94AE070C94AE070C94AE0705010980C2
:1000B000A101850319012AB700150126B700950192
:1000C00075108100C0050C0901A101850419012AE0
:1000D000A002150126A002950175108100C005013E
:1000E0000906A1018506050719E029E71500250184
:1000F0009508750181020507190029EF15002501F2
:1001000095F075018102050819012905950575010C
:100110009102950175039101C00660FF0961A1017B
:100120000962150026FF00952075088102096315F4
:100130000026FF00952075089102C005010906A15F
:1001400001050719E029E7150025019508750181CA
:10015000029501750881010507190029FF15002680
:10016000FF0095067508810005081901290515008D
:100170002501950575019102950175039101C00056
:10018000AF00AE0000000000003E5B4F5B3E003E53
:100190006B4F6B3E001C3E7C3E1C00183C7E3C18A6
:1001A000001C577D571C001C5E7F5E1C0000183C25
:1001B000180000FFE7C3E7FF00001824180000FF45
:1001C000E7DBE7FF0030483A060E002629792926AA
:1001D00000407F05050700407F05253F005A3CE7AA
:1001E0003C5A007F3E1C1C0800081C1C3E7F00146B
:1001F000227F2214005F5F005F5F0006097F017F9E
:1002000000006689956A0060606060600094A2FFEB
:10021000A2940008047E04080010207E201000082C
:10022000082A1C0800081C2A0808001E10101010BC
:10023000000C1E0C1E0C0030383E383000060E3EFE
:100240000E060000000000000000005F000000003B
:100250000700070000147F147F1400242A7F2A124D
:100260000023130864620036495620500000080736
:10027000030000001C224100000041221C00002A53
:100280001C7F1C2A0008083E08080000807030000F
:10029000000808080808000000606000002010083E
:1002A0000402003E5149453E0000427F400000727A
:1002B00049494946002141494D33001814127F1025
:1002C000002745454539003C4A4949310041211143
:1002D000090700364949493600464949291E0000A8
:1002E0000014000000004034000000000814224107
:1002F00000141414141400004122140800020159BF
:100300000906003E415D594E007C1211127C007FAF
:1003100049494936003E41414122007F4141413E29
:10032000007F49494941007F09090901003E4141D7
:100330005173007F0808087F0000417F41000020C2
:1003400040413F01007F08142241007F404040406F
:10035000007F021C027F007F0408107F003E4141A5
:10036000413E007F09090906003E4151215E007FA0
:10037000091929460026494949320003017F010332
:10038000003F4040403F001F2040201F003F4038BA
:10039000403F006314081463000304780403006101
:1003A00059494D4300007F4141410002040810209B
:1003B00000004141417F000402010204004040402E
:1003C0004040000003070800002054547840007F9C
:1003D0002844443800384444442800384444287FA2
:1003E0000038545454180000087E090200182424D0
:1003F0001C78007F080404780000447D4000002041
:1004000040403D00007F102844000000417F400034
:10041000007C04780478007C0804047800384444A4
:100420004438007C1824241800182424187C007CEC
:10043000080404080048545454240004043F44248D
:10044000003C4040207C001C2040201C003C4030F0
:10045000403C004428102844004C9090907C00447C
:1004600064544C440000083641000000007700004E
:10047000000041360800000201020402003C26236D
:10048000263C00000000000000000000000000000A
:10049000000000C0E0F0F8F81800C0F0FCFEFFFF1C
:1004A000FFFFFFFFFF7E0000000000000000008053
:1004B000C0E0E0E0E0E0E0E0E0C0800000000080BC
:1004C000C0E0E0E0E0E0E0E0E0C080000000E0E06C
:1004D000C0C0E0E0E0E00000E0E0C0C0E0E0E0E05C
:1004E000E0C0800000000080C0E0E0E0E0E0E0E08C
:1004F000E0C08000000000000000000000000000DC
:1005000000E0F0F0F0E0ECEEF7F37020007C7C7C93
:100510007E007E7E7E7F7F7F000080C0E07E5B4F1E
:100520005BFEC00000C000DCD7DEDEDED7DC00C032
:1005300000000000000000000000000000000000BB
:10054000000000000000000000000000F8FCFEFFBA
:10055000E000FFFFFFFFFFFF80FFFFFFFFFFFFFF48
:10056000FFFF1F0701000000000000000000FFFF68
:10057000FF8100000000000081C3C3C30000FFFF33
:10058000FF8100000000000081FFFFFF0000FFFF6F
:10059000FF01000000000000FFFFFF01000000005D
:1005A00001FFFFFF0000FFFFFF9D1C1C1C1C1C1C0B
:1005B0009DDFDFDF00000000000000000000000001
:1005C000000F1F3F7F7F7F7F7F3F1E0C001F1F1F7D
:1005D0003F003F3F3F7F7F7F00307B7F7830202090
:1005E00030787F3B0003000F7F0F0F0F7F0F00035A
:1005F00000000000000000000000000000000000FB
:10060000000000000000000000000000030F1F3F7A
:100610003F3F3F1F1F3F3F7F7F7F3F3F1F3F7F7F0A
:100620007F7F7C7878381C0F0000000000000001FC
:10063000030707070707070707030100000000017A
:10064000030707070707070707030100000007075D
:10065000070000000000000007070700000000007E
:100660000007070700000001030707070707070740
:10067000070301000000000000000000000000006F
:10068000000000000000000000000000000000006A
:10069000000000000000000000000000000000005A
:1006A000000000000000000000000000000000004A
:1006B000000000000000000000000000000000003A
:1006C00000000009025B00030100A0FA0904000019
:1006D0000103010100092111010001224400070565
:1006E0008103080001090401000203000000092140
:1006F00011010001222200070582032000010705E5
:100700000303200001090402000103000000092185
:1007100011010001226D0007058403200001120170
:100720000002000000085346010001000102000120
:100730000C0343006F0072006E00650000001003A0
:1007400066006F006F007300740061006E000000AF
:10075000040309042B0014001A00080015001700F8
:10076000292104001600070009000A00E1001D000D
:100770001B00060019000500000000000000E60054
:10078000215228002A00130012000C0018001C003F
:10079000015700570F000E000D000B00E500025737
:1007A0003700360010001100000000000000E300D8
:1007B00022522C0029001E001F00200021002200D0
:1007C0003A003B003C003D003E003F00400041003D
:1007D0004200430044004500000000000000E60025
:1007E00001002C002A0027002600250024002300F9
:1007F00000005200460049004A004B004F005100E3
:1008000050004C004D004E00000000000000E600CB
:1008100023522C0029001E021F0220022102220264
:1008200000000000BD00A800AA00A9000000000010
:10083000BE00AD00AC00AB000000000000003900BD
:10084000010028002A002702260225022402230292
:100850003500310230002F002E002D00350231000E
:1008600030022F022E022D02000000000000E600E0
:1008700023522C00007C000000000000000000005B
:1008800020782378257827780000000021782478C4
:100890002678287800000000000000000000E30037
:1008A0000100010000000000000000000000000046
:1008B0000000000000000000000000000000000038
:1008C0000000000000000000000000000000E60042
:1008D0000100010000010101010101010101020209
:1008E00002020202020202030303030303030304DE
:1008F00004040404040405050505050606060606A9
:10090000070707070708080808090909090A0A0A62
:100910000B0B0B0C0C0C0D0D0D0E0E0E0F0F0F1004
:10092000101111111212131314141515161617178E
:10093000181819191A1A1B1B1C1D1D1E1E1F2020FA
:10094000212222232424252626272829292A2B2C44
:100950002D2D2E2F30313232333435363738393A67
:100960003B3C3D3E3F404142434445464748494A5F
:100970004C4D4E4F50515354555658595A5B5D5E2D
:100980005F616264656668696B6C6D6F70727375C8
:1009900077787A7B7D7E8082838587888A8C8E8F2C
:1009A00091939596989A9C9EA0A2A3A5A7A9ABAD5A
:1009B000AFB1B3B5B7BABCBEC0C2C4C6C9CBCDCF48
:1009C000D1D4D6D8DBDDDFE2E4E7E9EBEEF0F3F5F6
:1009D000F8FAFDFF00DA0281FFD9F1DB20A4A62E90
:1009E000AF00A0C0D30000A1C8D30000AED580A83E
:1009F0001F408D14200000000000E0100808C8B05F
:100A00008080808080808040403C140408901804DE
:100A100008B040800000000000000102C4A4FC00F7
:100A20000000008000000000000000000080C858A6
:100A3000282A100F000000000000000E0904040422
:100A40000402030201010202040810262B320405ED
:100A5000060000000000000000E01010F0000000A0
:100A600000000000008080807828081020300810E6
:100A70002040800000000000000304081011F9016C
:100A8000010101010100000000000000000110B0A0
:100A90005055201F00000000000000000000000171
:100AA000020C10202837021E2020180C141E0100F2
:100AB00000000000000000000000008040201090B6
:100AC0009090A0C08080807008140890101008A436
:100AD00078800000000000000000000708FC010012
:100AE000000000800000010000000000000818EA7B
:100AF000100F0000000000000000000000031C2098
:100B0000203C0F111F03061820203C0C121E010070
:100B100000000000000000000000000080402020D5
:100B200020408000000000E0102810202020104805
:100B3000F0000000000000000000001F20F802018B
:100B4000010101010101030000000001001030D586
:100B5000201F00000000000000000000003F2030C7
:100B60000C020509121E021C140810202C32010070
:100B70000000000000000000000000000000000075
:100B800000000000E01C02050224040402A91EE08B
:100B9000000000000000000000000000E0100868F5
:100BA00010080403000000000000000206827C031D
:100BB0000000000000000000000000000102040C22
:100BC0001010202020283E1C20203E0F111F000066
:100BD0000000000000000000000000000000000015
:100BE00000000000E01C02050224040402A91EE02B
:100BF0000000000000000000000000E09008186005
:100C00001008040300000000000000020E827C03B4
:100C10000000000000000000000000000102040CC1
:100C20001010202020283E1C20203E0F111F000005
:100C30000000000000000000000000008040404074
:100C40004080000000000000C040408000804080E4
:100C5000000000000000000000001E21F00402025D
:100C6000020203020204040403010000090180805F
:100C7000AB04F8000000000000000000031C20206E
:100C80003C0F111F02061820203808101804040217
:100C90000201000000000000000000008040404011
:100CA0008000000000000000E0A0204080C0204044
:100CB000800000000000000000003E41F00402023D
:100CC000020302020204040201000000040040408A
:100CD00055827C0000000000000000003F20300C26
:100CE000020509121E0418100810202834060201FB
:100CF00001000000000000C02010D0300000000003
:100D00000000008080403C14040890180408B040A3
:100D1000800000000000000304081011F901010127
:100D20000101010000000000000080C848282A10CE
:100D30000F00000000000000000000000001020C95
:100D4000102028370202040810262B320405060062
:100D500000000000000000E01010F00000000000A3
:100D6000000000808040402C14040890180408B053
:100D7000408000000000000304081011F901010187
:100D8000010101000000000000000080C048282A86
:100D9000100F204A09100000000000000001020CA2
:100DA000102028370202040810262B320405060002
:100DB00000000000000000008000000000000000B3
:100DC0000080C0701806061870C080000000000087
:100DD000000000800000000001071F3266C46C386C
:100DE0001E3761C080808080C061371E386CC46649
:100DF000321F07010000000080E0F84C6623361C1B
:100E000078EC8603010101010386EC781C36236629
:100E10004CF8E0800000000001000000000000002D
:100E20000001030E186060180E03010000000000AE
:100E300000000001000000000000000000000000B1
:100E400000000000000000000000000000000000A2
:100E5000000000000000000000007E0F00D4FFFF33
:100E6000FFC70000007800000000000000002A2BEF
:100E7000280000000000000000000000000000004A
:100E80000029000000002C1E3420212224342627B3
:100E9000252E362D3738271E1F20212223242526D4
:100EA0003333362E37381F0405060708090A0B0CA2
:100EB0000D0E0F101112131415161718191A1B1CEA
:100EC0001D2F3130232D350405060708090A0B0CA8
:100ED0000D0E0F101112131415161718191A1B1CCA
:100EE0001D2F3130354C20202020616263646566FF
:100EF0006768696A6B6C6D6E6F707172737475760A
:100F00007778797A3132333435363738393052455B
:100F100042545F2D3D5B5D5C233B27602C2E2F20D0
:100F2000202011241FBECFEFDAE0DEBFCDBF13E0DB
:100F3000A0E0B1E0E0EBF5E602C005900D92A83626
:100F4000B107D9F727E0A8E6B3E001C01D92A43E9F
:100F5000B207E1F70E940F250C947B320C9400003D
:100F60009C01FB019A9581159F4120F5832F81708B
:100F7000B32FB270AA27732F74706627532F58703F
:100F8000442734FF0DC08295807FAB2B09F080622F
:100F9000672B09F08064452B09F080680995089556
:100FA000AB2B09F08260672B09F08460452BB1F30D
:100FB0008860F4CF80E0F2CF982F92959F7024E064
:100FC000911102C020E0982F892F86958695811572
:100FD00011F02E5F982F892F8695820F08958093A8
:100FE00098070895292F983090F5863080F590E085
:100FF00036E0239F800D911D1124282F277041E09A
:1010000001C0440F2A95EAF723E0969587952A9523
:10101000E1F7FC01EE0FFF1FE80FF91FEC5BF84F43
:1010200020E030E070E05191DF01CB01022E02C0E0
:10103000969587950A94E2F7817081958527842398
:1010400085278E932F5F3F4F2330310561F7089539
:10105000292F983078F5863068F590E036E0239FA8
:10106000800D911D1124682F677023E09695879558
:101070002A95E1F7FC01EE0FFF1FE80FF91FEC5B6B
:10108000F84F40E050E080E0219130E0062E02C0B1
:10109000369527950A94E2F721703327042E01C074
:1010A000220F0A94EAF7822B4F5F5F4F43305105BE
:1010B00059F7089580E0089580919C0790919B07CF
:1010C000981301C008958F5F8770FACF9C01803E0E
:1010D000910509F448C0D8F48133910509F47DC025
:1010E00048F48932910509F46DC08A9709F47CC0EF
:1010F000C90108958933910551F18238910539F17B
:10110000C597B1F78091940785FFF2CF29C0843E3F
:10111000910509F447C048F4823E910599F1833E58
:101120009105A9F121EE30E0E3CF863E910509F467
:1011300044C0873E9105E1F68091940783FD61C02C
:101140009091950791FF2BC024EE30E0D1CF809194
:1011500094078370811152C08091950783FFC8CF97
:1011600029E230E0C5CF8091940780FD33C0909193
:10117000950790FFBDCF23EE30E084FFB9CF20E08C
:1011800030E0B6CF8091940782FDF5CFB1CF80914A
:10119000940782FD30C09091950790FD2FC084FF89
:1011A000A7CFEDCF8091950781FFA2CF80919407C3
:1011B00027EE30E084FDE3CF9BCF8091940783FD41
:1011C000F7CF96CF8091940785FD1EC0809195073B
:1011D00083FF8ECF29E330E08BCF8091940786FF89
:1011E00087CF2AE230E084CF8091940786FF80CFBA
:1011F00021E330E07DCF22EE30E07ACF20EE30E008
:1012000077CF26EE30E074CF25E330E071CF9091B8
:10121000940792FF10C041E0282F2471243009F078
:1012200040E031E0282F2871283009F030E04317E2
:1012300011F02CE0822793FF10C041E0282F247189
:10124000243109F040E031E0282F2871283109F0DD
:1012500030E0431711F02CE082273091950730FFE2
:1012600010C051E0282F2171213009F050E041E0F9
:10127000282F2871283009F040E0541711F029E098
:10128000822731FF10C041E0282F2171213109F060
:1012900040E031E0282F2871283109F030E0431771
:1012A00011F029E0822794FD877E08951F93CF9344
:1012B000DF930E946608EC01811520E5920708F093
:1012C00041C0811540E4940708F0B5C0803E910507
:1012D000F8F48D3C910508F0A1C0883A910580F49E
:1012E000853A910508F08CC08130910521F0049772
:1012F000813A910550F4CE01DF91CF911F9108956D
:10130000885A91094B9708F47EC0C0E0D0E0F3CF33
:101310008115904250F4C11581E0D80708F080C0D3
:10132000CE01805E91090897E5CF8D2F8F710E94C5
:101330000709182FCE0199270E946608EC01D12BCE
:10134000D062D9CFC03692E5D90740F5C03422E546
:10135000D20708F08DC0C03242E5D407C0F48C2F0C
:10136000C11552E5D50708F06FC08F710E940709BB
:1013700043E0CC0FDD1F4A95E1F7CC27DF70282F23
:1013800030E084FD94C0C22BD32BD069B4CFCF7191
:10139000D0E0DC2FCC27C16FD06AADCFC03C82E556
:1013A000D80708F5C03A92E5D90708F077C0CE0112
:1013B00080569245809708F0A8CF8C2F8695869509
:1013C000877050E2859FC0011124C37021E030E096
:1013D000A90102C0440F551FCA95E2F7EA01C82BC4
:1013E000D92BDA6888CFCE01805C9245809708F0CF
:1013F0008CCFDC2FCC27CC27DF71C06FD06A7BCF9E
:10140000A497D06478CFC85AD0E0CC0FDD1FCF5C52
:10141000DC4F0990D881C02DD4646DCFD0656BCFDF
:101420008D2F0E940709182FCE0199270E94660868
:10143000EC01D12B60CF99270E946608CC27DF7082
:10144000C82BD92BD06A57CF8695869520E2829FEC
:10145000C0011124C37021E030E0A90102C0440F93
:10146000551FCA95E2F7EA01C82BD92BDD6843CF97
:101470008C2F86958695877050E2859FC001112438
:10148000C37021E030E0A90102C0440F551FCA9586
:10149000E2F7EA01C82BD92BDC682DCF8C2F8F7196
:1014A0000E940709C82FD0E0DC2FCC2724CF50E1C1
:1014B000859F9001112467CF80E00895F894E82F6C
:1014C000E295EF70F0E041A18F7021E030E0B901CA
:1014D00002C0660F771F8A95E2F7CB01962F909591
:1014E000942391A392A1892B82A378940895A0E0DC
:1014F000B0E0EDE7FAE00C944E31372FE82FF0E042
:10150000EC52F74F71110AC0E4918E2F2E2F6E2FDF
:10151000722FCDB7DEB7E7E00C946A31062F10E0EA
:10152000E72EF12CD4902D2D86E0689FE001112448
:10153000EFEFF0E0CE01BF010E942F31000F111F2D
:1015400045E5469FC001479F900D1124081B190BCC
:10155000402F440F400F8F010E191F09D09ED0015C
:10156000D19EB00D11248B2F349F80011124012FA7
:1015700011277F01E01AF10A8701D09E7001D19EE8
:10158000F00C11248F01041B1109A801349F800164
:10159000359F100D1124012F1127E01BF10BDE9E4A
:1015A000A001DF9E500D1124E52F63307105C1F0BD
:1015B000CC3FD34058F461307105B1F06230710511
:1015C00009F0A5CFED2D2B2F852FA1CF643071050C
:1015D00071F06630710509F49ACFEB2F8F2D97CFFC
:1015E0002B2F8D2DEF2D93CFED2D2F2D90CFEB2F7A
:1015F0008D2D252F8CCFE42FF0E0EE0FFF1FE55B44
:10160000FD4F61A9621B089590916D04982B9093F2
:101610006D0408950E94130D0895FF920F931F9378
:10162000CF93DF93182F062FF42EC0E0D0E02F2D9C
:10163000402F612FCE010E940A0B2196C633D1059F
:10164000B1F7CDB7DEB7E5E00C946C319BE0899F34
:10165000802D1124980F973308F096E320911307FB
:10166000211104C08B3128F48BE108959C3108F0DE
:101670009BE10895A0E0B0E0E0E4FBE00C944B3186
:10168000182F8091100181132AC09091DC0793706C
:1016900020910F0130E081E09217130609F480E0F9
:1016A00080930E018091E10790910D01981739F018
:1016B00080930D0140E060E080E00E940D0B12304D
:1016C00009F45BC070F4111111C080910E018115F5
:1016D00059F040E060E080E00E940D0B05C081E021
:1016E000DFCF133009F48CC020E02FC080910C01B3
:1016F0000E94260BC82F092F6091DD077091DE072D
:101700008091DF070E94770AF62EE72ED82ED0E0D0
:101710000C1709F038F48091130721E0811599F036
:101720000B3112C0FE01E951FD4F808190910D01F6
:101730008923811531F02D2D4F2D6E2DCE010E9464
:101740000A0B2196E5CF063378F680910C018F5F66
:1017500080930C0121110CC082E08093950180914F
:101760000E01811105C0111103C083E08093950122
:10177000CDB7DEB7EAE00C94673180910C010E948E
:10178000260BC82FD92ED091DD07F090DE070091EF
:10179000DF076D2F7F2D802F0E94770AC62EB72E70
:1017A000A82E8091E0076D2F680F7F2D802F0E945B
:1017B000770A062FF72EE82ED0E0DC1609F040F469
:1017C0008091130721E08115C9F08BE1D816BCCFB9
:1017D000FE01E951FD4F808130910D013823311513
:1017E00059F02E2D402F6F2D80FD03C02A2D4C2D3A
:1017F0006B2DCE010E940A0B2196DFCF86E3E6CF48
:1018000080910C010E94260B092F3091E00736953C
:10181000369521E0320F08F43FEF60916904709132
:101820006A0440E050E0639F412D739F400D511DBD
:101830001124F42EC82FD0E0C01708F06CCFFE01A1
:10184000E951FD4F808190910D018923811591F01F
:101850006091DD077091DE078091DF072F2D4C2FFF
:101860000E94FB0A0E94770A462F672F282FCE017D
:101870000E940A0B2196E0CFCF93C82F811591F0DB
:101880008091DC0681110EC00E943A0B109210016B
:101890008091DC07837080930F010E94491083E0E0
:1018A00080939501C093DC06CF9108958091DC0769
:1018B00083708111109295018091DC078C7F809359
:1018C000DC070895982F862F2091DC0723702115BF
:1018D00089F0911581F0943080F49F73990F990FDE
:1018E0002091DC072370922B9093DC0710929501D6
:1018F0000E94040B089591E0F1CF93E0EFCF809127
:10190000DC07869586958F5F843008F081E061E082
:101910000E94620C08958091DC07869586958A95D1
:1019200009F483E061E00E94620C0895982F822FF1
:101930002091DC072370211559F09093DD07609307
:10194000DE07473908F046E94093DF070E94040BA1
:101950000895ECEDF7E0818190E021E04381628120
:1019600008960E94960C0895ECEDF7E0818121E045
:10197000438162818850990B0E94960C0895ECED8A
:10198000F7E0628128E0620F08F46FEF818121E0C7
:10199000438190E00E94960C0895ECEDF7E062819F
:1019A00028E0621B08F460E0818121E0438190E03F
:1019B0000E94960C0895ECEDF7E0438128E0420F79
:1019C00008F44FEF818121E0628190E00E94960C43
:1019D0000895ECEDF7E0438128E0421B08F440E075
:1019E000818121E0628190E00E94960C0895ECEDE7
:1019F000F7E024813AE0230F08F42FEF248381E0FD
:101A00000E94040B0895ECEDF7E024813AE0231BDB
:101A100008F420E0248381E00E94040B0895539A87
:101A2000109264040895CF93DF93DC018091130733
:101A3000811120C0AB31B10504F15B97FD01EE0FC0
:101A4000FF1FEF01CA0FDB1FCE53DC4F89818613C6
:101A500006C08881841303C08A81821771F081E0F7
:101A600080936404EA0FFB1FEE53FC4F61834083B5
:101A7000228303C0AB31B1050CF3DF91CF91089500
:101A8000FA01811511F009950895FB01FCCF209111
:101A90007A0436E0839FC0011124269F800D911D9A
:101AA0001124811522E0920714F080E090E08F531A
:101AB0009B4F90937904809378040895EF92FF925E
:101AC0000F931F93CF93DF93A0917804B091790483
:101AD0009D01215C3440620F731F613042E0740746
:101AE00010F060E072E04091C3065091C406FC0122
:101AF000EE24E394F12C2617370748F05093C406E0
:101B00004093C306CDB7DEB7E6E00C946B31849109
:101B10009D919817A1F08D0101501109E80188836A
:101B2000C901C5E096958795CA95E1F7E70102C01E
:101B3000CC0FDD1F8A95E2F7CE014C2B592B2F5F7E
:101B40003F4F3196D8CFFA01309709F009950895A3
:101B500080911207811559F0E0913A07F0913B0707
:101B6000309729F00190F081E02D0995089580E0EB
:101B70000895A3E0B0E0EFEBFDE00C9453319C013D
:101B80008091C0039091C10382179307A1F0309315
:101B9000C1032093C003E0913A07F0913B073097CF
:101BA00051F083E089833B832A830084F185E02D13
:101BB000CE01019609952396E2E00C946F31A3E0E3
:101BC000B0E0E5EEFDE00C9453319C018091BE0342
:101BD0009091BF0382179307A1F03093BF03209326
:101BE000BE03E0913A07F0913B07309751F084E053
:101BF00089833B832A830084F185E02DCE01019601
:101C000009952396E2E00C946F3190916501911152
:101C100012C0ACE6B3E0EFEF90E02D91821751F0E7
:101C2000EF3F19F4211101C0E92F9F5F9630A9F70A
:101C3000EF3FC9F408959091940797FFEACFE82FFA
:101C4000E695E695E695803FA8F7F0E0EE58FC4F64
:101C5000877021E030E001C0220F8A95EAF7828187
:101C6000822B828308950E2E000CFF0BE659FC4F49
:101C7000F8CF90916501911521F09091940797FD0F
:101C80000CC0ECE6F3E09191891302C0DF011E92D3
:101C900053E0E237F507B9F70895E82FE695E695A2
:101CA000E695803FC8F7F0E0EE58FC4F877021E0E2
:101CB00030E0A90102C0440F551F8A95E2F7CA011E
:101CC000809592818923828308952FB7F89460913B
:101CD000BA037091BB038091BC039091BD032FBFE9
:101CE0000895CF92DF92EF92FF92809112078115B3
:101CF00059F00E94650E6B017C01C701B601FF908F
:101D0000EF90DF90CF9008950E94650EC090140769
:101D1000D0901507E0901607F0901707C60ED71E53
:101D2000E81EF91EEACF0F931F938B019C014FB75A
:101D3000F8946091BA037091BB038091BC039091B9
:101D4000BD034FBF601B710B820B930B1F910F9153
:101D5000089587E797E7909301088093000888E14A
:101D60009AE00FB6F894A895809360000FBE909308
:101D70006000FFCF8091B90308950895FC019B0195
:101D80008091AF039091B0038617970740F0672BBF
:101D900029F48091E8008E778093E800C90140E043
:101DA000009741F4411106C08091E80082FF2FC0E6
:101DB00080E008952091D6062115A9F12530A9F1DA
:101DC0002091E80023FD2DC02091E80022FDECCFFA
:101DD0002091E80020FFE4CF3091F3002091F20041
:101DE000009719F02830310558F041E028303105CE
:101DF00009F040E02091E8002E772093E800D0CF52
:101E000041914093F10001972F5F3F4FE9CF8091BF
:101E1000D606811541F0853041F08091E80083FFBE
:101E2000C3CF81E0089582E0089583E00895809112
:101E3000A90387FF13C08091E80082FF06C080914C
:101E4000E8008B778093E80008958091D606811191
:101E5000F2CF08958091D6068115D9F38091E800DC
:101E600080FFF8CF8091E8008E77ECCF2091E400DE
:101E70003091E50095E6A9012091EC00822F817058
:101E800020FF06C08091E80080FF06C080E0089532
:101E90002091E80022FD1AC08091D606811589F0B4
:101EA000853089F08091EB0085FD0FC02091E40022
:101EB0003091E50042175307F9F29A95E1F684E074
:101EC000089582E0089583E0089581E00895E8EDA3
:101ED000F0E080818E7F80831092E2001092DA0021
:101EE0001092E100A0EEB0E08C9181608C93808133
:101EF0008F77808319BCA7EDB0E08C918E7F8C9397
:101F000080818F7E80831092A8030895FC01AC012C
:101F10004C5F5F4F8FEF61E39191892728E030E0BC
:101F2000982F990F87FF09C0892F862721503040AD
:101F3000B9F7E417F50781F70895892FF7CF982FA0
:101F40009093E900891771F07091EC002091ED00F9
:101F50005091F00021FD09C09F5F973089F7809371
:101F6000E9000895762F242F50E03091EB003E7F5A
:101F70003093EB003091ED003D7F3093ED003091D8
:101F8000EB0031603093EB007093EC002093ED0098
:101F90005093F0002091EE0027FDDECF0895A0E0E1
:101FA000B0E0E5EDFFE00C944D31C8EDD0E0888164
:101FB0008F7E8883E7EDF0E080818160808384E01C
:101FC00082BF81E08093A80388818E7F888302EEA0
:101FD00010E0F80110821092DA0081EEC82ED12CA8
:101FE000F601108288818F77888388818068888352
:101FF00088818F7D888319BC1092D6061092A70322
:1020000010927C041092A60390EEE92EF12CF701B9
:1020100080818B7F808388818160888342E060E05B
:1020200080E00E949F0FF60180818E7F8083F801FF
:10203000808181608083808188608083F7018081D6
:102040008E7F8083888180618883CDB7DEB7E8E0AA
:102050000C946931E0919C0790919B0727E0E9136C
:1020600002C080E00895AE2FB0E02E9FF001112451
:10207000E356F84F3181361306C03081381303C060
:102080003581341304C0FD013196E770E8CF81E05B
:10209000089580916404811539F13BB1377F2BB1EC
:1020A00028604FB7F89482EC93E0FC0101965081D0
:1020B00068E02BB9000000C057FF3BB9550F000086
:1020C00000C000C000C03BB900C06A9591F754E061
:1020D0008436950751F74FBF8FE594E00197F1F7EC
:1020E00000C000001092640408950F931F93CF93D3
:1020F000DF938B01EA019091D606943059F58093D5
:10210000E9008FEF9091E80095FD06C095ED9A9556
:10211000F1F700008A95B1F78091E80085FF1AC0B9
:102120000E94360F811111C08091E80085FD06C024
:102130008091E8008E778093E800F2CFF8018191DA
:102140008F018093F100219779F78091E8008E77D5
:102150008093E800DF91CF911F910F910895CF9365
:10216000DF93D82FC92F48E050E0682F792F81E006
:102170000E94751088E0ED2FFC2FA1EBB3E00190D9
:102180000D928A95E1F7DF91CF910895BC0140E26D
:1021900050E084E00E9475100895BC0143E050E0D7
:1021A00084E00E9475100895A0E0B0E0EAEDF0E14F
:1021B0000C944B31182F092FB62EA72E7A0180913F
:1021C0009C039AE0C92ED12C8A3018F0CC24C394F9
:1021D000D12CC1E0D0E06B2D7A2D812F902FF7010B
:1021E0000995811116C02196CC16DD0694F0CC9F7E
:1021F000C001CD9F900D900D112420E030E045E30B
:102200004A95F1F700002F5F3F4F28173907B9F7BC
:10221000E2CFCDB7DEB7EAE00C9467311F93CF93DE
:10222000DF93962F122F632F8630D8F49830C8F49E
:102230004630B8F4C42FD0E0CC0FDD1F2CE0929FC5
:10224000C00DD11D112490E6899FC00DD11D112410
:10225000CE0188960E945732612FCE0189960E9446
:102260005732DF91CF911F910895AF92BF92CF92D5
:10227000DF92FF920F931F93CF93DF93A12CB12C8A
:10228000C0E06501D0E019C021E030E0C43020F4A6
:10229000F801859195919C014F2D6D2F8C2F0E94F7
:1022A0000E11F3940E5F1F4F86E0F812EDCFDF5F43
:1022B00086E0C80ED11CD83039F08601000F111FFE
:1022C0000C5A184FF12CE0CFCF5F80E3A80EB11C61
:1022D000C630B9F6DF91CF911F910F91FF90DF903B
:1022E000CF90BF90AF900895CF93DF93C8E6D2E030
:1022F00060E0CE010E9457322196C11584E0D807D4
:10230000B9F7DF91CF910895CF93C82F64E281117F
:1023100001C06FEF84E290E00E94573266E0C11185
:1023200001C06FEF85E290E00E94573267E1C11172
:1023300001C06FEF86E290E00E945732CF9108957E
:1023400080E00E94841160E087E290E00E945732B2
:102350000E9435110E94741181E00E948411089539
:102360000F931F93CF93DF93863030F5683020F5BD
:10237000463010F5C42FD0E0CC0FDD1F2CE0629F5B
:10238000C00DD11D112430E6839FC00DD11D112435
:10239000CE0188960E943932082F10E0102F0027B6
:1023A000CE0189960E9439329801282BC901DF910C
:1023B000CF911F910F91089580E090E0F8CF462FC4
:1023C000672F783038F4463028F4863018F40E94AD
:1023D000B011089580E090E00895A0E0B0E0E3EF50
:1023E000F1E10C944E317C0100919907809198079E
:1023F000082BC5E0D0E010E0C8010C2E02C0959576
:1024000087950A94E2F780FD09C02197A8F7D12C9F
:102410008D2DCDB7DEB7E7E00C946A31DC2EB70125
:102420008C2F0E94DF110E945609019771F3F0CFA3
:102430000F931F93CF93FC0185810081118181153A
:1024400091F0611581F0C8010E94ED11C82F682F2D
:10245000C8010E94F207B8018C2F0E94DF11CF91B2
:102460001F910F910895C8010E942808C82FF3CF2B
:10247000CF93DF93D82FC92F0E94ED116D2F7C2FA2
:102480000E94DF110E945609DF91CF910895FC014F
:1024900084818115A1F0808191810E943812282FBA
:1024A00092959F70963099F060F4925F9F70923091
:1024B00030F4203FB1F038F481E0283E38F080E07D
:1024C00008959A5FF3CF81E0243FC9F7089591E022
:1024D000213F09F090E081E0283E08F080E0892B60
:1024E000089581E0089584E290E00E9439328432B8
:1024F00089F485E290E00E943932863059F486E210
:1025000090E00E94393291E0873109F090E0892F04
:102510008170089580E0FCCF8091970790919A0791
:10252000892B90916501911549F19091940797FF3E
:1025300025C08093730340E250E06AE177E082E7D0
:1025400093E00E941332892BC1F080E2E2E7F3E0CE
:10255000AAE1B7E001900D928A95E1F7E0913A0780
:10256000F0913B07309749F086E080937203048036
:10257000F581E02D82E793E00995089580936A0341
:1025800048E050E06CE377E08AE693E00E94133283
:10259000892B99F388E0EAE6F3E0ACE3B7E0019039
:1025A0000D928A95E1F7E0913A07F0913B07309759
:1025B00021F30280F381E02D8AE693E0DDCF8115DF
:1025C00039F090919707892B809397070E948C127E
:1025D0000895811539F090919A07892B80939A0775
:1025E0000E948C120895811541F080959091970773
:1025F0008923809397070E948C120895811541F0DA
:10260000809590919A07892380939A070E948C1253
:102610000895CF93C82F8115D9F08CEF8C0F813A94
:10262000A8F580916501811521F08091940787FDBF
:1026300011C0ECE6F3E082E793E02191C21701F1CB
:102640008E179F07D1F78C2F0E94050E0E948C12C7
:10265000CF910895EC2FE695E695E695F0E0EE58DB
:10266000FC4F828190E04C2F477021E030E002C0A7
:10267000220F331F4A95E2F782239323892B19F304
:102680008C2F0E94390E0E948C12DDCF80E28C0FBD
:10269000883068F4C77081E090E001C0880FCA9567
:1026A000EAF7C0919707C82BC0939707CFCF8BE568
:1026B0008C0F833038F42C2F2452330BC9010E9425
:1026C000B90DC6CFC85ACB3118F6EC2FF0E0EE0F9B
:1026D000FF1FEF5CFC4F808191810E94DF0DB8CF1E
:1026E000CF93DF93EC01805E9109089720F069EEAB
:1026F00072E1209711F46FED72E1CE010E94B007F4
:102700008C2F0E940913DF91CF910895CF93DF930F
:10271000EC01FB018A81823039F4828193810E942D
:1027200070138C8182608C83DF91CF910895FB01BF
:10273000808191810E9470130895811571F19CEF41
:10274000980F913A28F40E94390E0E948C12089535
:1027500090E2980F983088F4877021E030E0A9016A
:1027600002C0440F551F8A95E2F7CA0180959091E7
:102770009707892380939707E8CF9BE5980F9330BD
:1027800028F480E090E00E94B90D0895885A8B31BA
:1027900020F480E090E00E94DF0D0895CF93DF9356
:1027A000EC010E949D13CE01805E9109089720F0F4
:1027B0006EEF72E1209711F463EF72E1CE010E9497
:1027C000B007DF91CF910895FB01DC0112968C9147
:1027D000813029F4808191810E94CE130895823046
:1027E000E9F782819381F8CF0F931F93CF93C82F7E
:1027F0008B010E9409130115110539F48C2F0E94D9
:102800009D13CF911F910F9108958FE99FE001973C
:10281000F1F700C0000001501109EDCF10929707A9
:10282000809165018115C1F08091940787FF14C0E4
:10283000E4E7F3E08EE1DF011D928A95E9F780E09D
:1028400090E00E94B90D80E090E00E94DF0D1092B0
:102850009A070E948C120895ECE6F3E086E0EBCF35
:102860000E940E142FEF84E39CE0215080409040A2
:10287000E1F700C0000088E19AE00FB6F894A8954F
:10288000809360000FBE90936000FFCFAAE2B0E09B
:10289000ECE4F4E10C94523189EA93E0FC010196F6
:1028A0002091F100208323E0813B9207B9F78091CA
:1028B000AA03893009F456C0C8F4823009F4B3C0C1
:1028C000833009F482C0813071F18091E80083FF88
:1028D000E7C08091A9039091AA039A3008F0E0C064
:1028E000E92FF0E0E358FD4C0C94DB318A3009F419
:1028F00089C08B3051F78091A903813231F78091E3
:10290000AD039091AE03892B01F78091E800877F9A
:102910008093E8000E94170F8091AB0380936501BC
:102920000E940E14D2CF8091A903813A71F6809152
:10293000E800877F8093E8008091AD039091AE031B
:10294000892B61F060E080E090E070E00E94BE0EB4
:102950008091E8008B778093E800B7CF68E081EB47
:1029600093E0F3CF8091A903813209F0AECF80913B
:10297000AD039091AE038D7F892B09F0A6CF809196
:10298000E800877F8093E8008091E80082FF18C00C
:102990009091F3008091F200029731F48091F10060
:1029A000813011F0863021F48091F1008093B903D9
:1029B0008091E8008B778093E8000E94170F85CF05
:1029C0008091D6068111E0CF80CF8091A903813A12
:1029D00009F07BCF8091AD039091AE03892B09F074
:1029E00074CF8091E800877F8093E8008091E800B1
:1029F00080FFFCCF809165018093F1008091E80019
:102A00008E77D9CF8091A903813209F05ECF809172
:102A1000E800877F8093E8000E94170F8091AC0345
:102A20008093A50352CF8091A903813A09F04DCF3D
:102A30008091E800877F8093E8008091E80080FF24
:102A4000FCCF8091A503D8CF803889F0823841F53A
:102A50008091AD038F70873018F58093E9008091E5
:102A6000EB0085FB882780F91092E90006C0809171
:102A70007C04880F9091A603892B9091E800977FA2
:102A80009093E8008093F1001092F1008091E800AB
:102A90008E7723C0811116C08091AB03813011F174
:102AA0008091E80083FF0AC08091E800877F8093CF
:102AB000E8008091EB0080628093EB00AA96E3E04F
:102AC0000C946E31823061F78091AB03811589F0EF
:102AD0001092E9008091E800877F8093E8000E94CF
:102AE000170FDECF81E0933009F080E080937C0403
:102AF000EFCF8091AD038F702FEF280F263080F637
:102B00008093E9002091EB0020FFE2CF933031F475
:102B10008091EB0080628093EB00DACF9091EB0024
:102B200090619093EB0021E030E0A90102C0440FD6
:102B3000551F8A95E2F74093EA001092EA008091CF
:102B4000EB008860E8CF8111ABCF1091AB031F770A
:102B50008091E3008078812B8093E3008091E800EE
:102B6000877F8093E8000E94170F8091E80080FF24
:102B7000FCCF8091E30080688093E30083E0111133
:102B800001C082E08093D6068BCF8058823008F057
:102B900087CF8091AB039091AC038C3D53E09507B8
:102BA00099F583E08A838AE289834FB7F894DE013E
:102BB000139620E03EE051E2E32FF0E050935700FF
:102BC000849120FF03C082958F703F5F8F708A30A1
:102BD000C8F0895C90E08D939D932F5F243161F75D
:102BE0004FBF8091E800877F8093E8006AE270E041
:102BF000CE0101960E94BE0E8091E8008B778093F3
:102C0000E8004ECF805DE6CF292F332723303105F2
:102C100009F44DC078F52130310509F47CC08BE50D
:102C200090E0E3ECF6E02230310509F039CF209155
:102C3000E800277F2093E8002091AF033091B00394
:102C40008217930708F49C0140E02115310509F033
:102C500067C0411165C08091E80082FDCDCF8091B1
:102C6000D606811549F2853039F28091E80083FF5C
:102C7000F2CFC2CF8091AD039091AE0321323105E6
:102C8000D9F12232310509F00BCF8330910508F0DC
:102C900007CFFC01EE0FFF1FE15CFD4F0190F081BB
:102CA000E02D845C9D4FDC018C9190E011C09C0173
:102CB0003327813089F022303105B1F0232B09F020
:102CC000EFCEE0E5F7E0E4918E2F90E0E0E5F7E06D
:102CD000009709F4E5CEABCFEEE3F7E0E4918E2F59
:102CE00090E0EEE3F7E0F4CFE0E3F7E0E4918E2F3D
:102CF00090E0E0E3F7E0ECCF8330910508F0D0CE30
:102D0000FC01EE0FFF1FEB5BFD4F0190F081E02D0A
:102D100089E090E08CCF82E190E0EEE1F7E087CFB0
:102D20008091D606811509F467CF853009F464CF08
:102D30008091E80083FD60CF8091E80082FD8BCF19
:102D40008091E80080FF81CF9091F3008091F200A4
:102D50002115310519F08830910550F041E00897B0
:102D600009F040E08091E8008E778093E8006DCF15
:102D700044914093F1003196215031090196E8CFFA
:102D8000803809F08DCE8091E800877F8093E8003D
:102D90008091A7038093F10079CE811181CE1091AB
:102DA000AB03123008F07CCE8091E800877F8093DF
:102DB000E8001093A7030E94170F1115D1F084E0CB
:102DC0008093D60642E061EC81E00E949F0F42E2D0
:102DD00061EC84E00E949F0F42E261EC82E00E947D
:102DE0009F0F42E260EC83E00E949F0F8091D60625
:102DF00057CE8091E30087FDE2CF81E0E1CFCF9312
:102E0000DF93EC0149855A856D857E850E94A30D6F
:102E10009B81909580919A07892380939A070E94BD
:102E20008C1285E0FE0111928A95E9F7DF91CF912E
:102E30000895CF93DF93EC018C8181FD11C08260F6
:102E40008C8380919A079B81892B80939A070E949B
:102E50008C124F8158856D857E85CE010E94A30D11
:102E60001092900710928F078C8180FD03C0CE01D5
:102E70000E94FF16DF91CF910895A4E0B0E0E3E453
:102E8000F7E10C9452316091E9067091EA06809165
:102E9000EB069091EC060E94930E11E064367105EA
:102EA0008105910578F10E94710EDC01CB0102963B
:102EB000A11DB11D89839A83AB83BC8380913E01A0
:102EC00090913F018750994F20913D01422F50E052
:102ED000253010F044E050E0BE016F5F7F4F0E944C
:102EE000203283E090E00E94BB30182F811551F012
:102EF0000E94650E6093E9067093EA068093EB06E4
:102F00009093EC06812F2496E3E00C946E31A0E0C0
:102F1000B0E0EDE8F7E10C944B31C82F7B01A42E13
:102F2000B22ED32F6801FB01608171818281938170
:102F30000E94930E643671058105910510F4A11469
:102F400029F10C2F0C2E000C110B88E0C802F001A7
:102F50001124EB5DFE4F818192818750994F208132
:102F6000422F50E0C216D10408F4A6016B2D7D2F2C
:102F70000E942032C8010E94BB30811541F00E949E
:102F8000650EF701608371838283938381E0CDB7FF
:102F9000DEB7EAE00C946731A9E0B0E0E2EDF7E1DA
:102FA0000C94513188E0ECEDF7E08E010F5F1F4F7C
:102FB000D80101900D928A95E1F78091DC0689870E
:102FC00049E050E068E077E0C8010E94133241E038
:102FD0009801892B09F440E009E010E06DED76E0FE
:102FE00086E00E9487172996E4E00C946D310F93D8
:102FF0001F93CF93DF93D82FC92F44E050E06EEF9B
:1030000076E00E94133241E0892B09F440E004E0AD
:1030100010E02D2F3C2F6DEE76E082E00E948717A6
:10302000DF91CF911F910F9108950F931F9341E06E
:103030009091060780919907981301C040E001E044
:1030400010E029E937E065EE76E084E00E9487171A
:10305000811589F041E090910707809198079813B6
:1030600001C040E001E010E028E937E061EE76E0E1
:1030700085E00E9487171F910F910895A1E0B0E0AD
:10308000E4E4F8E10C9451318091D706898341E062
:1030900090911107981301C040E001E010E09E01FB
:1030A0002F5F3F4F68ED76E087E00E9487172196FB
:1030B000E4E00C946D31EF92FF921F93CF93DF9376
:1030C00000D000D00F92CDB7DEB77B0180E090E05A
:1030D0000E94BB30182F811509F460C0809128012F
:1030E000482F50E0811511F041E050E06091290136
:1030F00070912A016750794FCE0105960E942032C7
:103100006091F5067091F6068091F7069091F806A9
:103110000E94930E643671058105910538F48AEF9B
:1031200096E00E94860F9D818917C1F181E090E0B1
:103130000E94BB30811509F43FC080913001482FB7
:1031400050E0853010F044E050E060913101709122
:1031500032016750794FCE0101960E9420328AEFEA
:1031600096E00E94860F9D81891326C00E94650EFD
:103170006093F5067093F6068093F7069093F80631
:1031800089819A81AB81BC818093F1069093F2068C
:10319000A093F306B093F40681E00FC08091FA0685
:1031A0009091FB06A091FC06B091FD0689839A835D
:1031B000AB83BC831111E4CF80E04091F1065091C4
:1031C000F2066091F3067091F406F7014083518393
:1031D000628373830F900F900F900F900F90DF9189
:1031E000CF911F91FF90EF90089548E050E067E184
:1031F00070E08CED97E00E94473210926D040895C4
:103200008F929F92AF92BF92CF92DF92EF92FF92F6
:103210000E94710E282F609365047093660480935A
:103220006704909368048091DC0681111EC0309180
:10323000DC07832F8370811519F0832F869586957F
:1032400030919501323009F190F431111BC0109288
:103250000C016093690470936A0420936B0490934B
:103260006C0481E08093950104C080E0E9CF3330A5
:10327000B9F0FF90EF90DF90CF90BF90AF909F900C
:103280008F9008950E943A0BF4CF809310018091A3
:10329000DC07837080930F010E94491083E0E2CF26
:1032A00080916D0481110E94F518809069049090BE
:1032B0006A04A0906B04B0906C0480911207811591
:1032C00079F0C501B4010E94930E6B017C0180E18D
:1032D000C816D104E104F10460F210929501C9CF3F
:1032E0000E94710E6B017C01C818D908EA08FB081E
:1032F000EECF81E080936D0448E050E067E170E03C
:103300008CED97E00E94293210926D040895CF93BE
:10331000C82F0E94DC07823001F190F4811115C0A2
:103320000E94560C0E9479198091DC07982F9370A7
:10333000911541F060E0869586950E94620C02C06E
:10334000833089F08C2FCF91089520E04FEF6FEFFD
:1033500080E890E00E94960CF5CF20E04FEF6FEFF1
:103360008FEB90E0F7CF20E04FEF6FEF8AEA90E02D
:10337000F1CF0E94871980939907089521E030E0EA
:1033800001C0220F8A95EAF780919907822B0E944B
:10339000B919089521E030E0A90102C0440F551F7A
:1033A0008A95E2F7CA0180959091990789230E9436
:1033B000B91908959091990721E030E0F90101C011
:1033C000EE0F8A95EAF7D90102C0AA0FBB1F6A95D2
:1033D000E2F7EA2B01C0220F4A95EAF7892F8E23E4
:1033E000E81305C0892F822B0E94B91908952095F2
:1033F000822F8923F9CFAB0124E630E0BC0188E7B6
:103400000E94D72E9C0181E0232B09F080E00895D3
:103410008091CC06811569F08091C906811549F02B
:1034200062E070E081E891E00E94FB198111109246
:10343000C90608958091CC068115F9F00E94650EA9
:10344000DC01CB01805A9541AF4FBF4F8093C50639
:103450009093C606A093C706B093C8068091C9068C
:1034600081110BC062E070E08FE791E00E94FB19D0
:10347000811519F081E08093C9060895CF93DF93F9
:10348000682F81E06A3019F06D3031F480E00E94DD
:10349000BE1ADF91CF9108958091780490917904BC
:1034A00026E0FC01AFE9B3E001900D922A95E1F727
:1034B000603E08F458C026E0FC0111922A95E9F715
:1034C000C0917804D091790446E050E0BE018FE9C4
:1034D00093E00E9413329E01215C3440892B41F11C
:1034E000C90145E0969587954A95E1F741E050E09E
:1034F000BA0102C0660F771F8A95E2F7CB0160918F
:10350000C3067091C406862B972BB9016B5F7F4F62
:10351000E5E076956795EA95E1F702C0440F551FFF
:103520006A95E2F7842B952B9093C4068093C3068B
:103530002A5F3F4F40917A04642F70E0C9010E94D6
:103540002F31481B463010F4240F311D211572E035
:10355000370710F020E030E02F533B4F30937904D1
:103560002093780496CFF6E06F9FB00111246D5739
:103570007E4F46E050E00E940A32A2CFCF93382F10
:10358000E0917804F0917904E15CF44020917A04B0
:10359000622F70E0CF010E942F31281B822F31153E
:1035A00061F066E00E947A31C82FC15010F4CF91CB
:1035B000089580E20E943E1AF8CF8E0F9F2F911D32
:1035C000811522E0920710F080E090E08F539B4F2E
:1035D0009093790480937804EACF0F931F93CF934D
:1035E000DF93EC01FC0101900020E9F78F0101500D
:1035F0001109C017D10728F0DF91CF911F910F91CA
:10360000089589910E943E1AF4CF1F921FB61F920F
:1036100011248F939F93AF93BF9380917B0481116B
:1036200013C08091BA039091BB03A091BC03B091E9
:10363000BD034196A11DB11D8093BA039093BB03B6
:10364000A093BC03B093BD03BF91AF919F918F91A5
:103650001F901FBE1F9018952FB7F8948091BA0342
:103660009091BB03A091BC03B091BD032FBF0895FF
:103670009C014FB7F8948091BA039091BB03A0913D
:10368000BC03B091BD034FBF821B930B0895FF9203
:103690000F931F93CF93DF93C62FD42F122F811533
:1036A000A9F0609393070E942C1B90939E03809334
:1036B0009D03C77081E001C0880FCA95EAF70E9498
:1036C000DF12CDB7DEB7E5E00C946C318091930743
:1036D000681332C080919D0390919E030E94381B15
:1036E000883C910548F500E20D0FCD17A9F0C77091
:1036F000FF24F3948F2D01C0880FCA95EAF70E942A
:10370000F312083048F48D2F877001C0FF0C8A95A2
:10371000EAF78F2D0E94DF1260E070E0812F0E9497
:10372000F413083070F6D77081E001C0880FDA9585
:10373000EAF70E94F312C5CFC77081E001C0880F7D
:10374000CA95EAF7F6CFA8E0B0E0E9EAFBE10C940D
:1037500045317C01FC018481811509F430C161E0AF
:10376000C7010E9418128C01F7018581811509F1AA
:1037700080918F07909190070097D9F0081719074B
:10378000C1F0FFE08F9FC0011124FC01E459FE4FFE
:1037900020812460208388599E4FFC01118300837F
:1037A0000E94191710929A0761E0C7010E9418122F
:1037B0008C01F7018581811509F4B1C1A8015A95E1
:1037C000980133274115FFE45F0730F0011521E030
:1037D000120708F062C09801B9016450710964329F
:1037E000710528F02B5231092E30310588F4E09113
:1037F0008807F0E0EE0FFF1FEA5AF84F2081318171
:103800002F3F9FE7390721F02F5F3F4F3183208300
:10381000F701918190938C07908190938B0790E2B0
:103820009093660110938A0700938907980130529C
:103830002115304208F464C19801305421153041FB
:1038400008F079C1F7019681903108F05EC1003E21
:10385000110509F07CC180938E07F70195819115C0
:1038600009F4EEC4109293079801305723323105C2
:1038700008F0A6C284E090E00E9441329093950740
:1038800080939407F801E150F047E232F10508F027
:10389000DDC1E957FD4C0C94DB31980137572038D6
:1038A000310508F0B5CF003108F089C08FEF93E003
:1038B0000E943932811183C028E6E22E22E0F22EE6
:1038C00001114FC0CE0101964C0188E0F401119224
:1038D0008A95E9F79AE0492E6701FFEFCF1ADF0AD0
:1038E000C7010E94393289831A82811509F467C0A1
:1038F000813009F068C087010E5F1F4FC6010E942A
:1039000039328A83811509F45AC09FEF980F93309A
:10391000B8F523E0E20EF11CC8010E9439328B8316
:10392000811509F44CC01C828401F8018081811545
:1039300099F2813009F088C08181813009F045C059
:103940006801F2E0CF0ED11CF801828160E5893375
:1039500009F060E070E00E94F41386010F5F1F4FD2
:10396000E4CFE114E4E0FE0651F1C7010E943932D0
:1039700097012F5F3F4F79018111F3CF0150A0CF05
:103980008430A1F482E0E82EF12CC8010F5F1F4FB4
:103990000E943932F401EE0DFF1D8083811579F00C
:1039A0008C3731F4FE01EE0DFF1D12827801BCCF81
:1039B0003FEFE31AF30A87E0E816F10431F728969F
:1039C000E0E10C9461317601AFCF823049F46801B7
:1039D000F2E0CF0ED11CF80182810E940913BDCF05
:1039E000833049F46801F2E0CF0ED11CF8018281E6
:1039F0000E949D13B2CF843019F00F5F1F4FAECFDE
:103A000022810E5F1F4F80E090E0A8014F5F5F4F63
:103A10002053330B2A30310558F0009709F49ECF1C
:103A2000EFE9FFE03197F1F700C000000197F5CF13
:103A3000489EB001499E700D1124C901860F971F41
:103A4000F80121818A01E1CFE82FF0E0EA59F14F36
:103A50005490282F26952695269530E0F901EA5AAC
:103A6000F14FE4918770F0E0082E02C0F595E795DC
:103A70000A94E2F7E1706E2E7724F901EA5BF14FC8
:103A8000A490B12C082E02C0B594A7940A94E2F732
:103A9000A0FAAA24BB24A0F8F901EA5CF14FC49073
:103AA000D12C02C0D594C7948A95E2F7C0FACC24F1
:103AB000DD24C0F86114710419F081EE0E9409132D
:103AC000A114B10419F086EE0E94091360E070E0C1
:103AD000852D0E94F413A114B10419F086EE0E9402
:103AE0009D136114710419F081EE0E949D13CD287D
:103AF00009F434CF60E070E08CE20E94F4132ECF22
:103B0000F7019681903108F479C0F801FF27ED3371
:103B1000F10528F4EA51F14FE491E09366010C328B
:103B2000110509F094CE80938D07811509F495CE87
:103B30001092670192CE41155F4138F39801205AE7
:103B400032452032310508F488CEF801E0CF9801E3
:103B500037552115314008F051C02FE0029FF00188
:103B600011249F0128593E4F6901E459FE4F90816D
:103B700080FB90F99083811529F10E942C1B909372
:103B8000920780939107F60182818F5F82838091F3
:103B90009A0790919707892B838345815681658584
:103BA0007685C6010E94A30DF601848181FD07C0C0
:103BB000902F812F90938F07809390074ECE90E0A7
:103BC00080E0F8CFF9014385548565857685C90184
:103BD0000E94A30DF601848181FF3FCEC6010E94A1
:103BE000FF1680918F07909190070817190709F029
:103BF00034CE1092900710928F072FCEF801E85123
:103C0000FC47E730F10508F028CEE755FD4C0C9451
:103C1000DB3126E241EE61EE0E94471BD0CE27E267
:103C200045EE65EEF9CF26E241EE60EEF5CF27E2F4
:103C300045EE64EEF1CF26E241EE62EEEDCF27E2F3
:103C400045EE66EEE9CF28E241E0EBCF80919407A4
:103C5000816080939407609194077091950784E048
:103C600090E00E9475320E940E14A9CE80919507B3
:103C7000886080939507EFCF809194078260E9CFA9
:103C8000809194078460E5CF809194078860E1CFAC
:103C9000809195078160EDCF809195078260E9CF93
:103CA000809194078061D5CF809194078062D1CFB5
:103CB000809194078064CDCF0E940E148091940768
:103CC0008068C7CF809194078C60C3CF809195079F
:103CD0008360CFCF809194078E7FBBCF8091950773
:103CE000877FC7CF809194078D7FB3CF8091940752
:103CF0008B7FAFCF80919407877FABCF8091950763
:103D00008E7FB7CF809195078D7FB3CF8091940739
:103D10008F7E9FCF809194078F7D9BCF809194075A
:103D20008F7B97CF0E940E14809194078F7791CF4D
:103D300080919407837F8DCF809195078C7F99CF59
:103D400080919407992782FF939590FB82F990FBCD
:103D500083F97FCF80919507982F909590FB80F9FC
:103D600090FB81F986CF90919407892F8F7B96FFE6
:103D700080646FCF0E940E1490919407892F97FB57
:103D800087F9805866CF61E08EE090E00E9457325C
:103D900062CF60E0F9CF90919407892F8F7E94FFD6
:103DA000806157CF90919407892F8E7F90FF81601B
:103DB00050CF90919507892F877F93FF886059CFC7
:103DC0000631FCE71F0719F5809197078A7A91E081
:103DD000811101C090E090939607811531F085E341
:103DE0000E94050E0E948C12EACD89E2F9CF89E289
:103DF00032C2809197078272F801E052F847E531AC
:103E0000F10508F057C0E055FD4C0C94DB31073745
:103E10002CE7120709F052C081E00E94BE1943E06E
:103E200062E081E00E94DA19CACD8091DC0791E05E
:103E300089278093DC071092950181E00E94040B92
:103E4000BECD4BE85CE06FE77CE00E94400DB7CD53
:103E50004FE75CE06BE87CE0F8CF44EB5CE069EABC
:103E60007CE0F3CF49EA5CE064EB7CE0EECF4DEC24
:103E70005CE06FEB7CE0E9CF4FEB5CE06DEC7CE06D
:103E8000E4CF49EE5CE06BED7CE0DFCF4BED5CE036
:103E900069EE7CE0DACF43E05DE067EF7CE0D5CF10
:103EA00047EF5CE063E07DE0D0CF61E081E00E941D
:103EB000620C85CD07373CE71307F9F008378CE72C
:103EC0001807F9F0911549F10130ECE71E0719F1D7
:103ED0000330FCE71F07C9F001152CE71207E9F4CE
:103EE0000E940E143FEF84E39CE0315080409040EC
:103EF000E1F700C000000E94A90E81E00E94CA19EB
:103F00008ECF82E09115D1F388CF6FEF7FEF80E005
:103F100090E00E9475320E943014F701C080D18079
:103F2000911589F1C6010E94ED11182F682FC60165
:103F30000E94F207B601812F0E94DF110E945609EC
:103F4000182FF7012581468142954F70392F329500
:103F50003F70383009F4A6C018F53430C8F4892F02
:103F60008F70323068F1907F903211F08295807FAF
:103F7000113009F065C0211509F45CC0463058F4D1
:103F80000E94DF1208C0C6010E942808182FD2CF55
:103F9000343009F46CC060E0C7010E9418120FCDE4
:103FA000393009F4F2C03A5F3F703230A0F7823FF7
:103FB00009F0FCC0892F8F71211509F427C1F3C0C6
:103FC000082F903110F00295007F2115C9F00115DE
:103FD00069F080E2810F883010F011110BC08091E0
:103FE0009707802B809397070E948C12812F0E9445
:103FF0000913D1CF80919A07802B80939A07F4CF31
:10400000812F0E949D13011531F2009580E2810FEE
:10401000883010F0111108C0809197078023809399
:1040200097070E948C12B7CF80919A0780238093C4
:104030009A07F7CF453008F0AECF0E94F312ABCF0E
:10404000211521F0411509F49BCFD0CF4115A9F3DB
:10405000193349F4FFEF27EE33E0F15020403040B0
:10406000E1F700C00000812F0E949D1394CF892F9B
:10407000869586958370811561F0813009F08BCF2C
:10408000812F9370211102C080E090E00E94DF0D2B
:1040900082CF812F9370211102C080E090E00E94B6
:1040A000B90D79CF892F8370811136C0211129C0B4
:1040B000812F829586958770880F880F212F2F700A
:1040C000082E01C0220F0A94EAF7412F407114FF15
:1040D00007C04FE050E001C0440F8A95EAF74095D1
:1040E000969596959370923091F0842F822B933011
:1040F00031F080919807913039F0242B82230E946F
:10410000EF070E94A80D47CF822B842BF8CF242BDA
:10411000809198078227F3CF211561F190FFF1CFAD
:10412000812F829586958770880F880F212F2F7099
:10413000082E01C0220F0A94EAF7412F407114FFA4
:1041400007C04FE050E001C0440F8A95EAF7409560
:10415000969596959370923099F0842F822B933098
:1041600031F080919907913041F0242B82230E94F5
:10417000B919C7CF823028F2D3CF822B842BF7CF47
:10418000242B809199078227F2CF092F0F702115D8
:1041900039F0802F0E94BE19812F0E94DF12B1CF0B
:1041A0000E94F312802F0E94CA19ABCF60F4803FA7
:1041B000B1F0813F39F1211579F1411551F1812F8C
:1041C0000E9409139ECF833FB1F780E0211579F259
:1041D0009F7181E001C0880F9A95EAF7C8CF211539
:1041E00079F0453008F08DCF292F2F7181E090E0D4
:1041F00001C0880F2A95EAF7909199078927B7CFD0
:104200004630F0CF892F8F71211569F20E94BE19B7
:1042100078CF892F8F71FACF411579F0193349F48E
:104220008FEF97EEE3E081509040E040E1F700C06F
:104230000000812F0E949D1364CF892F8F71B3CF0F
:1042400006312CE7120709F0D4CD8091960781152D
:1042500009F4CDCD85E30E94390EC4CD8091DB07F2
:10426000803178F48091DA07811559F0E0919C074C
:1042700020919B073091D6074091D50757E02E1328
:1042800001C008956E2F70E05E9FF0011124DF01E0
:10429000A356B84F14968C911497811561F111961D
:1042A0008C911197831327C08C91841324C0159689
:1042B0008C91159781111FC012968D919C91A091A0
:1042C000D707B091D8078A1B9B0B883C910598F4BF
:1042D0008091DB078F7080618093DB07ED55F84F8D
:1042E00080818F708061808385ED97E00E94A31BA1
:1042F0000E945C080895FB013196E770C0CFADE0E5
:10430000B0E0E5E8F1E20C9447318C0186E0F80179
:10431000DE01189601900D928A95E1F7F801F5807B
:10432000848195ED892E97E0992E6090D9076110D0
:1043300018C0811599F0F11409F415C1C8010E9443
:104340004712811509F40FC187E0F801A5EDB7E028
:1043500001900D928A95E1F70E942E21FF24F3949B
:1043600056C07080A280B380D090DA072091D70722
:104370003091D807A501421B530BD11409F4C3C0D7
:10438000483C510508F079C0811541F38091D6076A
:10439000C180E090DB0750E1E51608F059C0C81273
:1043A00015C08091D507871111C0F1104BC08E2D1B
:1043B0008F7080618093DB0785ED97E00E94A31BDF
:1043C0008091DB07F8018683F12C21C0F1103AC0FF
:1043D00040E06C2D872D0E942A1040E06C2D872D27
:1043E0000E942A10F82E8111EFCF888599850E94AE
:1043F0003812292F22952F70903470F49F7022303C
:10440000A0F09115B1F0F8019681903190F48F2DC4
:104410002D96EEE00C9463312A5F2F70223068F005
:10442000C8010E94A31BFD2CF2CF911511F081153C
:1044300071F3805E883058F3F3CF803F40F3815FA3
:104440008330F9CF8091DB0781608093DB07BCCF9D
:10445000C8123BC08091D507871137C0F11035C015
:10446000E682C8010E94A31B87E0F801A5EDB7E032
:1044700001900D928A95E1F771CFE090DB07F0E1B2
:10448000EF1650F485ED97E00E94A31B87E0F4013E
:1044900011928A95E9F798CF811509F45FCF909131
:1044A000D607F8018181981310C08091D507871134
:1044B0000CC0F1100AC0E682C8010E94A31B87E06D
:1044C000F40111928A95E9F749CFC8010E94471279
:1044D000811509F448C0F11409F445C08091DB0747
:1044E000803208F431CF8091D5079091D6079A8316
:1044F0008983BC82AB826D821E82EF82CE010196DF
:104500000E94A31B21CF483C510508F0BFCF811565
:1045100009F424CFF11439F19091D60781819813D1
:1045200018C08091D507871114C08091DB0780FDEA
:104530009BCF803108F498CF8683807F803F09F439
:1045400090CF8681982F907F905F8F70892B868384
:1045500088CFC8010E9447128111F6CE8091DB07F7
:1045600081608093DB07C8010E94A31BF7CEABE1FB
:10457000B0E0EDEBF2E20C9451314E8B5F8B688F23
:10458000798F8A8F192F9B8F911110929A071D8A0C
:1045900086E0FE017696DE011F9601900D928A95C7
:1045A000E1F70A8D011539F00B8B1C8B61E0CE0110
:1045B0000F960E9418120B8B1C8B87E0FE013F9612
:1045C000DE01189601900D928A95E1F7CE010896CA
:1045D0000E947F21811128C09C8520919B073091EA
:1045E0009C0787E0FE013896DE01119601900D923E
:1045F0008A95E1F79115C1F0822F90E001968770BE
:10460000992738171906D9F097E0929FD001112405
:10461000A356B84FFE01319601900D929A95E1F79D
:1046200080939B070E945C0817E080919C07909103
:104630009B07891312C06B96E4E00C946D310E94C5
:104640000E1410929B0710929C0787E0E5EDF7E0AF
:10465000DF011D928A95E9F7E7CF189FC001112469
:104660008356984F0E947F21811529F380919C07E2
:1046700090E001968770992780939C07D6CFA6E09B
:10468000B0E0E5E4F3E20C9451310E942C1B8C0164
:1046900080911807909119078017910779F0198276
:1046A0001A820E942C1BBC0149815A8180E090E053
:1046B0000E94B72210931907009318072696E4E08A
:1046C0000C946D31ACE0B0E0E8E6F3E20C944631D6
:1046D000FE01319688E0DF011D928A95E9F78DE1B0
:1046E000E82E83E0F82E8F013F01AA24A394B12C79
:1046F00027E2822E23E0922EF70181917F018F3FE6
:1047000009F43EC0F894E82FE295EF70F0E021A1A3
:104710008F70A50102C0440F551F8A95E2F7CA01A8
:10472000922F982B91A392A18095892382A37894AC
:1047300000C0E1E2F3E031E0512C21912F3F79F00C
:10474000A22FA295AF70A05EB0E08C9190E02F7088
:1047500002C0959587952A95E2F780FF9BC080E07F
:10476000582A330F8E169F0641F7F70182918F3F2B
:1047700011F00E945E0A50EA5A95F1F7D8015C9256
:104780000F5F1F4FB1E2EB16B3E0FB0609F0B4CFA9
:1047900048E050E0B3018EE694E00E9413326C01D1
:1047A000892B41F088E0F301AEE6B4E001900D9270
:1047B0008A95E1F70091770410E00253194FC11474
:1047C000D10409F469C081E080939B030E942C1BF3
:1047D00090939A038093990380911207811509F4AD
:1047E000B2C07E01E9E0EE0EF11C84E0D7011D921B
:1047F0008A95E9F780919C038A3008F06FC04BE5F9
:1048000058E1B701C8010E94D410811509F489C08C
:1048100047EF57E1B701C8010E94D410811509F490
:1048200080C04DE357E1B701C8010E94D410811543
:1048300009F477C045E158E1B701C8010E94D410DE
:10484000811509F46EC04CEC57E1B701C8010E9414
:10485000D410811509F465C04EE358E1B701C801D1
:104860000E94D410811509F45CC010929C038091C1
:10487000760490E044E050E0B7018253994F0E94E3
:10488000133221E020939803892BE9F52C96EFE071
:104890000C946231832F64CF80919B03811509F4BE
:1048A0009BCF8091990390919A030E94381B0597A2
:1048B00008F492CF44E050E06EE674E0C8010E9434
:1048C0001332892B41F084E0EEE6F4E0D801019048
:1048D0000D928A95E1F710929B037ECF809196030B
:1048E000909197030E94381B843F914008F087CF36
:1048F00080919803811551F284E0F70111928A9515
:10490000E9F710929803E0917604F0E0E253F94F52
:1049100089859A85AB85BC8580839183A283B38387
:10492000B5CF80919C038F3F39F40E942C1B90934C
:10493000970380939603DCCF8F5F80939C038A302C
:1049400008F495CFF2CFE0907604F12CA701425302
:10495000594F7A01F80180819181A281B3818093BE
:10496000FA069093FB06A093FC06B093FD068AEF2F
:1049700096E00E94860F8093F9068091FE06909142
:10498000FF06A0910007B0910107F7018083918392
:10499000A283B383C0900207D0900307E09004077E
:1049A000F09005078091920390919303A091940356
:1049B000B0919503C816D906EA06FB06B1F0C0927D
:1049C0009203D0929303E0929403F09295030E9495
:1049D000650EC61AD70AE80AF90AC0921407D092DF
:1049E0001507E0921607F09217078091060780934B
:1049F0009907809107078093980788E0E8E0F7E03F
:104A0000ACEDB7E001900D928A95E1F78091100727
:104A10000E943C0C809111078093D70637CFCDB709
:104A2000DEB7A9970FB6F894DEBF0FBECDBF85B72E
:104A3000806885BF85B7806885BF84B7877F84BF5E
:104A40000FB6F894A895809160008861809360000B
:104A5000109260000FBE80E890E00FB6F89480934B
:104A60006100909361000FBE8CE59AE0909369031A
:104A7000809368030E94670F0E94CF0F8091E2002D
:104A800084608093E20078948091D606811599F035
:104A90008091E9001091EC008F7017951127179500
:104AA000182B1092E9008091E80083FD0E944614C3
:104AB0001F701093E90082E084BD93E095BD9AEFEA
:104AC00097BD80936E0010921407109215071092F4
:104AD0001607109217070E947312811102C00E94DC
:104AE000A0118091D80080618093D8002AE12A9596
:104AF000F1F700C08091D900182F117080FD04C01B
:104B00000E94670F1092D606109312071093130796
:104B10001093110111110E94CD2F809111018091EC
:104B2000110191E08927880F880F8093770494E022
:104B3000981B9093760484E90E945E0A86E60E94A0
:104B40005E0A87E90E945E0A86EC0E945E0A01E224
:104B500013E0D8018D918D018F3F11F00E945E0A04
:104B6000B3E007321B07A9F788E0EEECF6E0DF01BF
:104B7000282F1D922A95E9F7EEE6F4E0DF011D9259
:104B80008A95E9F780E090E00E944132853E9E4F91
:104B900021F40E947312811163C065EE7EEF80E004
:104BA00090E00E94753260E082E090E00E9457320F
:104BB00081E08093980761E083E090E00E945732A3
:104BC00060E074E184E090E00E94753260E086E08D
:104BD00090E00E94573260E087E090E00E945732F8
:104BE00040E050E0BA0188E090E00E94693260E065
:104BF00083E290E00E94573260E08CE090E00E94F7
:104C0000573260E08DE090E00E94573219821A829C
:104C10001B821C821D821E821F82188648E050E083
:104C200067E170E0CE0101960E94473240E050E01B
:104C3000BA018FE190E00E94693280E00E94841105
:104C40000E94A01140E050E0BA018FE090E00E9485
:104C5000693240E050E0BA0183E190E00E9469329D
:104C600082E090E00E94393280937D0484E090E0FD
:104C70000E94413290939507809394070E9462238B
:104C8000EFEFF6E721E0E150F0402040E1F700C00F
:104C900000000E946223E091130781E0E827EE0FF5
:104CA000EE0FF0E0E253F94F808181FF08C06FEF13
:104CB0007FEF80E090E00E9475320E94A90E83E0B1
:104CC00090E00E9439320E94EF07809199070E947C
:104CD00087190E940F0D0E9479198091DC0784309A
:104CE000B8F485E08093DC0780919601909197015C
:104CF000A09198018093DD079093DE07A093DF07D2
:104D00008FE78093E0078FEF8093E1070E94F5180B
:104D100083E08093C10680E280937A040E94522E41
:104D20006BE070E08BEE99E00E94FB19811509F4AD
:104D30003FC08091C10665E070E081FDA6C086EEAF
:104D400099E00E94FB19811599F16DE070E084ED06
:104D500099E00E94FB19811559F10E94650EDC0152
:104D6000CB01805A9541AF4FBF4F8093C5069093BA
:104D7000C606A093C706B093C806E1ECF4E080E055
:104D800092E0DF019C011D9221503040E1F7F09349
:104D90007904E09378048FEF9FEF9093C40680939B
:104DA000C30681E08093CC068093C9061092C206A8
:104DB00080911207811102C00E94D02F82E191E000
:104DC00090933B0780933A078091D606853061F433
:104DD0008091D606853009F45BC00E940E140E94B3
:104DE000A80D80E00E943C0C0E9462235EE7E52E45
:104DF00054E0F52E6EECC62E66E0D62E26E834E0A2
:104E0000D601F70191918D912E173F0709F498C0B3
:104E10009817C1F38090120710E033243394F60101
:104E200001916F01D7019D907D01901631F190267F
:104E3000B12CAA24A3948A2D89218115B9F081145B
:104E4000A9F0B9821A830E942C1B9C838B833D821C
:104E500091E08A2D8023811101C090E09E834981D9
:104E60005A816B817C818D810E94B722B394AA0CF8
:104E7000B6E0BB12E0CFF70102931F5F183079F65E
:104E80000E94710EE1E0EDA360C081EE99E059CF80
:104E90008091D606843059F10E94001981E00E9469
:104EA0003C0C0E94081A10927B0488E190E0A0E478
:104EB0000FB6F894A895809360000FBEA093600091
:104EC00083B7817F846083BF83B7816083BF789419
:104ED000889583B78E7F83BF0FB6F894A89580918D
:104EE0006000886180936000109260000FBE809126
:104EF0007C04811509F46CCF0E946223EEECF6E08D
:104F00008191811105C0B6E0E63DFB07C9F760CF8E
:104F100080E189BD82E189BD09B400FEFDCF8091A9
:104F2000D8008F7D8093D8008091E00082608093CC
:104F3000E0008091E00081FDFCCF0E940E1448CF7C
:104F4000981368CF0E943F231DA2809112078115FC
:104F500009F4D6C000918F07109190070115110533
:104F6000B9F080919107909192070E94381B893C7B
:104F7000910570F0FFE00F9FC0011124FC01E4597E
:104F8000FE4F208122FD04C088599E4F0E941917B0
:104F90008090560790905707092C000CAA08BB0870
:104FA00010911C01212F30E0E6E5F7E081E090E070
:104FB0003296281739070CF0A6C160918C047091C5
:104FC0008D0480918E0490918F040E94930E2B018A
:104FD0003C019401A501B7FE04C020E030E040E0B0
:104FE00050E0A0E6BAEE0E94E8316B017C0188EC4B
:104FF000189F90011124032E000C440B550B240D17
:10500000351D461D571DA5E0B0E00E94E8319B010B
:10501000AC01C701B6010E949A3169017A01213FB2
:1050200031054105510510F040EFC42EA9EC4A1698
:105030005104610471040CF18091880790E001969D
:1050400069E170E00E94863180938807880F991F7C
:10505000FC01EA5AF84F11821082183108F017E16A
:105060001F5F10931C010E94650E60938C04709367
:105070008D0480938E0490938F04B2E08B1691047C
:10508000A104B1040CF4C12C6091880470918904CE
:1050900080918A0490918B040E94930E69A37AA355
:1050A0008BA39CA389A19AA1ABA1BCA18536910534
:1050B000A105B10584F00E94650E60938804709389
:1050C000890480938A0490938B048091D7068093FF
:1050D0008704C092860410918704A0918604A11BC6
:1050E000BB0B29A13AA14BA15CA10E94F33124E69C
:1050F00030E040E050E00E94BC31120F1093D70620
:105100000E9400198091CC06811509F4C4C08091D9
:10511000CA069091CB060E94381BC29708F49BC028
:105120000E942C1B9093CB068093CA0660E080E01F
:105130000E94470D8091D70690E09093A004809341
:105140009F040E94A80D80939E04809112078115F0
:1051500009F42CC189E991E00E94ED1A64E080E035
:105160000E94470D809199070E94DC07823009F464
:10517000DEC008F0D4C08111D7C08FE991E00E9451
:10518000ED1A609191047091920480919304909132
:1051900094040E94930E693C710581059105B0F15C
:1051A0000E94650E6093910470939204809393041F
:1051B0009093940480918D07811104C080916701C0
:1051C0008111BBC06EE080E00E94470D86E392E053
:1051D0000E94ED1A6BE080E00E94470D81E0809311
:1051E00067018091900490E00196817099278093E7
:1051F000900401978076992720919E0421FFAAC0F0
:1052000060E670E08A50934F0E945E0D80919F048B
:105210009091A004181619060CF4B8C060919A0475
:1052200070919B0480919C0490919D040E94930E28
:1052300061367A4E8105910570F060E080E00E9451
:10524000470D87ED91E00E94ED1A0E94081A6CE06C
:1052500080E00E94470D8091C3069091C406892B7F
:1052600009F014C18091C9068115A9F00E94650E4C
:105270000091C5061091C6062091C7063091C80658
:10528000601B710B820B930B6F3F7F4F8F4F9F47BC
:1052900010F40E94081A2DA121110E941A1A0E94CE
:1052A000A80D9091CD06891721F08093CD060E941C
:1052B000650E8091D606843009F086CD83E0809318
:1052C000E9008091E80082FF7FCD8091E80090E0C6
:1052D00085FF06C00E94360F811509F4B1C191E027
:1052E0008091E8008B778093E800911509F46CCDEC
:1052F0008981EFEFE80FE33108F0CAC1F0E0EB532A
:10530000FD4C0C94DB3140815181052E000C660B65
:10531000770B840E951EA61EB71E019649CE8330CC
:1053200049F088EB91E02BCF86EA91E028CF8CEA18
:1053300091E025CF82EB91E022CF6BE080E00E94EC
:10534000470D86E392E00E94ED1A6CE080E00E9437
:10535000470D47CF20918E07211529F060E670E0B8
:105360008A5C934F51CF20919F043091A00460E656
:1053700070E02B3031051CF48A58944F45CF293208
:1053800031058CF48A54954F0E945E0D0E941A1AC2
:105390000E94650E60939A0470939B0480939C0412
:1053A00090939D0458CF8A50964FEECF60E870E0FE
:1053B00086EB9DE00E945E0D80919F049091A00479
:1053C000181619060CF047C00E94650E60939A04E7
:1053D00070939B0480939C0490939D046EE080E006
:1053E0000E94470D6091D70680911D01861311C060
:1053F00080919904803369F485E994E00E94ED1A64
:105400006FE080E00E94470D8EEB91E00E94ED1A64
:1054100022CF60931D0180E3809399041092980439
:1054200070E080E090E02AE030E040E050E00E9450
:105430009A31605D60939704CA01B9012AE030E0B7
:1054400040E050E00E949A31605D60939604205DD8
:1054500020939504D1CF60919A0470919B04809120
:105460009C0490919D040E94930E61367A4E8105B2
:10547000910508F4F0CE60E080E00E94470D83ECD7
:1054800091E00E94ED1A0E94081AE5CE8091CC06A8
:10549000811509F4E7CE8091C2068111E3CE0E9406
:1054A0001A1A2091C3063091C4062115310509F45A
:1054B000D9CE10E041E050E0812F90E07A01012E3A
:1054C00002C0EE0CFF1C0A94E2F7B9016E217F21A5
:1054D000672B11F41F5FF0CF2091C10620FF9DC004
:1054E000912F990F990F990F37E0390F80E023E042
:1054F0009093200180932301309321012093240174
:1055000024E630E047E050E06EE171E088E70E9479
:10551000882E892B09F0A6CEE0E21E9FA00111245F
:105520008091C10680FF85C0E1EAF4E080E2DF01FE
:105530001D928A95E9F7EBE2F3E0F9A7E8A707E205
:1055400013E09FE2292E93E0392E99249394A8A585
:10555000B9A56D91B9A7A8A7F80181918F01840F12
:10556000952F911D9C012F533B4F3FA32EA3E62F58
:10557000F0E0EF55FB4F20E030E087E0A82EA21AC4
:10558000B92C022E01C0BB0C0A94EAF7CEA0DFA012
:1055900090E0D6018D916D018B216A2D691B67709A
:1055A00070E0B82F062E01C0BB0F0A94EAF7719580
:1055B000619571096770772701C086956A95EAF74A
:1055C0008B2B6081862B80839F5F983011F72F5F34
:1055D0003F4F31962830310581F6E8A5F9A52E1602
:1055E0003F0609F0B4CF04E610E020E230E041EAE3
:1055F00054E060E488E70E94222F892B09F032CE24
:10560000E094F0948091C3069091C4068E219F216E
:105610009093C4068093C30625CE9695879596955C
:105620008795282F912F9295990F90763FE1390F0A
:105630005FCF4F535B4F04E610E020E230E0D9CF5C
:1056400000E210E0CE0101967C018091E80085FD2A
:105650000AC08091E8008B778093E8000E94360FA3
:10566000811599F33CCE8091F100D7018D937D0196
:105670000150104051F733CE1A828CE08B831AC050
:105680008A81833049F138F4813061F08230D9F079
:105690008FEF89830FC08430D9F71B821C821D8253
:1056A0001E8208C00E94650E0E94E1316B837C83DC
:1056B0008D839E8340E250E0BE016F5F7F4F82E0AA
:1056C0000E94751081CB87E290E00E9439321B82E4
:1056D0001C821D828E83EECF8B8190E0FE0134967A
:1056E000883091053CF7DC01A253B94F2C912193EE
:1056F0000196F6CF8A81823071F0853049F680912B
:10570000DC0791E089278093DC071092950180E007
:105710000E94040BCFCF6B817C818D819E810E9482
:10572000E13187E290E00E945732C4CF4C816B8117
:105730008A810E94B0119827892798279E838D839C
:10574000B9CF2D813E813227232732274C816B81AF
:105750008A810E940E11AECF0E943511ABCF9A8183
:10576000933009F095CF883009F43EC0893009F4B0
:1057700068C08B818330A1F158F4813091F0823080
:1057800009F098CF8C8181111AC00E94560C92CFDB
:10579000843009F08FCF8C8120E04091DF076D814C
:1057A0000AC04C8126E9429F412D11248091DD07DA
:1057B00020E06091DE0790E00E94960C7BCF9091F4
:1057C000DC079370911102C0109295019091DC0753
:1057D0009C7F91609093DC0760E00E94620C6ACF2E
:1057E0008C818093E00793CF8B81833039F180F4F3
:1057F0008130C1F0823009F05DCF8091DC07982FB5
:10580000937086958695911101C080E08C8352CF6C
:10581000843009F04FCF8091DD078C838091DE07C3
:105820008D8348CF8091DF07BFEF8B9FC00111248C
:1058300066E970E00E942F316C833CCF8091E007D5
:10584000E5CF0E94F51836CF80E18A8333CF81E01F
:105850008A8388E913CFCA80DB80DC24CD24DC2452
:105860008C817601E80EF11C8E010B5F1F4FCE1468
:10587000DF0409F41FCF80E0E8E9CE16E1E0DE06A0
:1058800028F4C60188599D4F0E943932D8018D9362
:105890008D01BFEFCB1ADB0AEACF0A811B811027EB
:1058A00001271027FE0131966F01EC80EE0EFF2ECE
:1058B000F11CEC14FD0409F4FDCE0839F1E01F07DA
:1058C00040F4D60114966C91C80188599D4F0E94EE
:1058D00057320F5F1F4FBFEFCB1ADB0AEACF0E9490
:1058E0007411E8CE86E0B1CFCA80DB80DC24CD2401
:1058F000DC248C817601E80EF11C8E010B5F1F4FBA
:10590000CE14DF0409F4D6CE80E0E0E4CE16E2E067
:10591000DE0620F4C60188960E943932D8018D93A4
:105920008D01BFEFCB1ADB0AEBCF0A811B81102759
:1059300001271027FE0131966F01EC80EE0EFF2E3D
:10594000F11CCE14DF0409F4B5CE0034F2E01F07D9
:1059500038F4D60114966C91C80188960E9457328B
:105960000F5F1F4FBFEFCB1ADB0AEBCF78941F926C
:105970001FB61F9211248F939F93AF93BF93809173
:10598000BA039091BB03A091BC03B091BD030196F3
:10599000A11DB11D8093BA039093BB03A093BC03D8
:1059A000B093BD03BF91AF919F918F911F901FBE88
:1059B0001F9018951F920F920FB60F9211242F93DC
:1059C0003F934F935F936F937F938F939F93AF9387
:1059D000BF93EF93FF938091E10082FF09C0809114
:1059E000E20082FF05C08091E1008B7F8093E1009F
:1059F0008091DA0080FF24C08091D80080FF20C011
:105A00008091DA008E7F8093DA008091D90080FF48
:105A10009BC080E189BD82E189BD09B400FEFDCF54
:105A200081E08093D6068091A803811109C00E946D
:105A3000670F0E94CF0F8091E20084608093E200A4
:105A40008091E10080FF17C08091E20080FF13C0C9
:105A50008091E2008E7F8093E2008091E20080617D
:105A60008093E2008091D80080628093D80019BCB6
:105A700085E08093D6068091E10084FF29C0809163
:105A8000E20084FF25C080E189BD82E189BD09B4BF
:105A900000FEFDCF8091D8008F7D8093D80080914B
:105AA000E1008F7E8093E1008091E2008F7E809301
:105AB000E2008091E20081608093E2008091A70380
:105AC000811509F447C084E08093D6068091D606FC
:105AD0008091E10083FF27C08091E20083FF23C013
